:020000040800F2
:10000000A00C00200D020008AD2E0008B929000840
:10001000A92E0008450A00081D5300080000000032
:1000200000000000000000000000000097480008E9
:10003000C51E00080000000079330008A949000827
:1000400027020008213300082702000827020008C1
:10005000270200082702000827020008C91E00081E
:1000600027020008270200082702000827020008CC
:1000700027020008270200082702000827020008BC
:1000800027020008270200082702000827020008AC
:10009000D55200082702000827020008270200089E
:1000A000270200082702000827020008270200088C
:1000B0002702000827020008954A000827020008C6
:1000C000270200082702000827020008270200086C
:1000D000270200089950000827020008270200089C
:1000E000270200082702000827020008270200084C
:1000F000270200082702000827020008270200083C
:10010000270200082702000827020008270200082B
:10011000270200082702000827020008270200081B
:10012000270200082702000827020008270200080B
:1001300000F002F800F05AF80AA090E8000C82449F
:100140008344AAF10107DA4501D100F04FF8AFF27C
:10015000090EBAE80F0013F0010F18BFFB1A43F0A5
:1001600001031847F8820000188300000A444FF08A
:10017000000C10F8013B13F0070408BF10F8014B06
:100180001D1108BF10F8015B641E05D010F8016B4B
:10019000641E01F8016BF9D113F0080F1EBF10F8AF
:1001A000014BAD1C0C1B09D16D1E58BF01F801CBD2
:1001B000FAD505E014F8016B01F8016B6D1EF9D555
:1001C0009142D6D37047000000230024002500266A
:1001D000103A28BF78C1FBD8520728BF30C148BFAA
:1001E0000B6070471FB51FBD10B510BD00F098F82B
:1001F0001146FFF7F7FF05F07DFB00F0B6F803B4FA
:10020000FFF7F2FF03BC05F005FB0000094880473B
:1002100009480047FEE7FEE7FEE7FEE7FEE7FEE7E8
:10022000FEE7FEE7FEE7FEE704480549054A064B00
:1002300070470000AD49000831010008A006002009
:10024000A00C0020A0080020A0080020704702F0A9
:10025000FF0343EA032242EA024200F002B84FF0F1
:1002600000020429C0F0128010F0030C00F02A8074
:10027000CCF1040CBCF1020F18BF00F8012BA8BF91
:1002800020F8022BA1EB0C0100F01CB85FEAC17C46
:1002900024BF00F8012B00F8012B48BF00F8012B08
:1002A0007047704770477047704710B500F030F8DE
:1002B000006810BD10B5044600F02AF8046010BDB7
:1002C0004FF0000200B5134694469646203922BFEF
:1002D000A0E80C50A0E80C50B1F12001BFF4F7AF3A
:1002E000090728BFA0E80C5048BF0CC05DF804EB1C
:1002F000890028BF40F8042B08BF704748BF20F88A
:10030000022B11F0804F18BF00F8012B704700003E
:10031000004870473C060020004870473C0600201B
:100320007546FFF7F9FFAE4605006946534620F0D3
:100330000700854618B020B5FFF776FFBDE82040DE
:100340004FF000064FF000074FF000084FF0000B91
:1003500021F00701AC46ACE8C009ACE8C009ACE844
:10036000C009ACE8C0098D46704710B50446AFF32C
:1003700000802046BDE81040FFF741BF1CB502F0E9
:1003800043FB0020E4490860022005F067FA0422DC
:100390006946900100F0CCF99DF80000382801D0A2
:1003A000012000E000209DF80110362901D0012134
:1003B00000E0002108439DF802104F2901D00121DF
:1003C00000E0002108439DF803104B2901D00121D2
:1003D00000E00021084300287ED038208DF800007E
:1003E00036208DF801004F208DF802004B208DF84B
:1003F000030004226946900100F0D2F930208DF804
:1004000000008DF801008DF80200032269464FF4C8
:10041000847000F0C5F930208DF800008DF80200DE
:100420002E208DF8010030208DF803008DF8040097
:10043000052269464FF4887000F0B2F9052269463A
:100440004FF4B87000F0ACF930208DF801002E2088
:100450008DF80200052269464FF48C7000F0A0F977
:10046000052269464FF4BC7000F09AF931208DF8EE
:1004700000002E208DF8010030208DF802008DF84C
:1004800003008DF804008DF805008DF806000522A4
:1004900069464FF4907000F083F9052269464FF4E5
:1004A000C07000F07DF9052269464FF4947000F0A9
:1004B00077F9052269464FF4987000F071F905222A
:1004C00069464FF49C7000F06BF905226946900173
:1004D00000F066F9052200E0ECE069464FF4A470F4
:1004E00000F05EF9052269464FF4A87000F058F953
:1004F000052269464FF4AC7000F052F905226946B6
:100500004FF4B07000F04CF9052269464FF4B47016
:1005100000F046F9052269464FF4C47000F040F936
:10052000052269464FF4C87000F03AF90522694681
:100530004FF4CC7000F034F9052269464FF4D070C6
:1005400000F02EF9052269464FF4D47000F028F926
:10055000052269464FF4D87000F022F90522694659
:100560004FF4DC7000F01CF9052269464FF4E0708E
:1005700000F016F9052269464FF4E47000F010F916
:1005800005226946502000F00BF92B208DF8000061
:1005900030208DF801008DF802002E208DF8030028
:1005A00030208DF804008DF8050006226946582099
:1005B00000F0F6F82B208DF8000030208DF80100B7
:1005C0008DF802002E208DF8040030208DF80300F5
:1005D0008DF8050006226946602000F0E1F8062249
:1005E0006946702000F0DCF82D208DF8000006220E
:1005F0006946682000F0D4F806226946782000F0A9
:10060000CFF832208DF8000030208DF801008DF8F1
:1006100002008DF804002E208DF8030030208DF8A4
:1006200005008DF80600062269464FF4E87000F0D8
:10063000B7F8062269464FF4EC7000F0B1F83020AC
:100640008DF800008DF801008DF802008DF8030090
:100650008DF804008DF805002E208DF8060030205E
:100660008DF80700082269464FF4F07000F098F802
:1006700008226946900100F093F830208DF80000C0
:100680008DF801008DF802008DF803008DF804004C
:100690008DF805008DF806008DF8070008226946E0
:1006A0004FF4F87000F07CF8082269464FF40270AD
:1006B00000F076F8022005F0D1F84FF48472694614
:1006C000032000F0A5F815490860084600680001FD
:1006D00008600846006812490844104908604FF451
:1006E000F8726946042000F093F80E490860084645
:1006F0000068000108600846008800F5027082B2B8
:100700000949082000F084F80849086000F0A6F8BC
:100710000120014908601CBD948121428400002011
:1007200000049411B8010020AC010020B4010020A5
:100730002DE9F04104460E46154602F001FAA020CC
:1007400002F0CEF902F056FA201202F0C9F902F0D6
:1007500051FA2746E11704EB11610912A4EB0121BC
:10076000C8B202F0BDF902F045FA02F0E9F9A120A1
:1007700002F0B6F902F022F909E0691EC8B202F0EF
:1007800083F93070681E85B2601C84B2761C002D1F
:10079000F3D102F003FA0A2005F060F8BDE8F08119
:1007A0002DE9F04104460D46164600201749086021
:1007B00002F0C6F9A02002F093F902F01BFA201211
:1007C00002F08EF902F016FA2746E11704EB1161E8
:1007D0000912A4EB0121C8B202F082F902F00AFA70
:1007E00007E0287802F07CF902F004FA701E86B265
:1007F0006D1C002EF5D102F0D1F9012003490860EB
:100800000A2005F02BF8BDE8F08100009481214218
:100810002DE9F04704460D4616464FF001082246E2
:1008200029463046FFF784FF13E0601E285C3A2813
:100830000DDC601E285C302809DB601E285C303827
:1008400000FB08F908EB88004FEA40084F44601E9F
:10085000C4B2002CE9DC3846BDE8F0871CB54FF483
:10086000887269460520FFF7D3FF6B4908804FF473
:100870008C7269460520FFF7CBFF684908804FF46A
:10088000E87269460620FFF7C3FF654908604FF428
:10089000907269460520FFF7BBFF624908804FF45C
:1008A000947269460520FFF7B3FF5E4948804FF414
:1008B000987269460520FFF7ABFF5A4988804FF4CC
:1008C0009C7269460520FFF7A3FF5649C8804FF484
:1008D000A07269460520FFF79BFF524908814FF43B
:1008E000A47269460520FFF793FF4E4948814FF4F3
:1008F000A87269460520FFF78BFF4A4988814FF4AB
:10090000AC7269460520FFF783FF4649C8814FF462
:10091000B07269460520FFF77BFF424908824FF419
:10092000B47269460520FFF773FF3E4948824FF4D1
:10093000B87269460520FFF76BFF3B4908804FF40A
:10094000BC7269460520FFF763FF384908804FF401
:10095000EC7269460620FFF75BFF354908604FF4EB
:10096000C07269460520FFF753FF324908804FF4F3
:10097000C47269460520FFF74BFF2E4948804FF4AB
:10098000C87269460520FFF743FF2A4988804FF463
:10099000CC7269460520FFF73BFF2649C8804FF41B
:1009A000D07269460520FFF733FF224908814FF4D2
:1009B000D47269460520FFF72BFF1E4948814FF48A
:1009C000D87269460520FFF723FF1A4988814FF442
:1009D000DC7269460520FFF71BFF1649C8814FF4FA
:1009E000E07269460520FFF713FF124908824FF4B1
:1009F000E47269460520FFF70BFF0E4948820E4856
:100A0000008800F5007082B20C490820FFF700FF53
:100A10000B4908601CBD000050000020540000205D
:100A200058000020EC010020520000205600002059
:100A30005C00002000020020B801002023000020FC
:100A40004400002000BFFEE71FB501F0D5F80622E4
:100A500002A94FF4E870FFF76BFE5A208DF80000F2
:100A600053208DF801009DF808008DF802009DF8D4
:100A700009008DF803009DF80A008DF804009DF828
:100A80000B008DF805009DF80C008DF806009DF810
:100A90000D008DF8070008226946FE48006801F045
:100AA000DDF9322004F0DAFE062202A94FF4EC70E0
:100AB000FFF73EFE46208DF8000053208DF8010020
:100AC0009DF808008DF802009DF809008DF80300DC
:100AD0009DF80A008DF804009DF80B008DF80500C4
:100AE0009DF80C008DF806009DF80D008DF80700AC
:100AF00008226946E748006801F0B0F9322004F0A6
:100B0000ADFE052202A94FF48870FFF711FE5A20AE
:100B10008DF800004C208DF801009DF808008DF83C
:100B200002009DF809008DF803009DF80A008DF879
:100B300004009DF80B008DF805009DF80C008DF861
:100B4000060020208DF8070008226946D148006879
:100B500001F084F9322004F081FE052202A94FF44D
:100B6000B870FFF7E5FD46208DF800004C208DF8A9
:100B700001009DF808008DF802009DF809008DF82D
:100B800003009DF80A008DF804009DF80B008DF815
:100B900005009DF80C008DF8060020208DF8070058
:100BA00008226946BB48006801F058F9322004F079
:100BB00055FE052202A94FF48C70FFF7B9FD5A20AB
:100BC0008DF8000051208DF801009DF808008DF887
:100BD00002009DF809008DF803009DF80A008DF8C9
:100BE00004009DF80B008DF805009DF80C008DF8B1
:100BF000060008226946A748006801F02FF9322054
:100C000004F02CFE062202A94FF4BC70FFF790FD01
:100C100046208DF8000051208DF801009DF8080055
:100C20008DF802009DF809008DF803009DF80A0078
:100C30008DF804009DF80B008DF805009DF80C0060
:100C40008DF80600082269469248006801F006F90E
:100C5000322004F003FE052202A94FF49070FFF742
:100C600067FD5A208DF8000030208DF801009DF8B6
:100C700008008DF802009DF809008DF803009DF82A
:100C80000A008DF804009DF80B008DF805009DF812
:100C90000C008DF80600082269467E48006801F0C5
:100CA000DDF8322004F0DAFD052202A94FF4C0700D
:100CB000FFF73EFD46208DF8000030208DF8010042
:100CC0009DF808008DF802009DF809008DF80300DA
:100CD0009DF80A008DF804009DF80B008DF80500C2
:100CE0009DF80C008DF806000822694669480068E6
:100CF00001F0B4F8322004F0B1FD052202A94FF44E
:100D00009470FFF715FD5A208DF8000031208DF802
:100D100001009DF808008DF802009DF809008DF88B
:100D200003009DF80A008DF804009DF80B008DF873
:100D300005009DF80C008DF806000822694655480C
:100D4000006801F08BF8322004F088FD052202A92A
:100D50004FF4C470FFF7ECFC46208DF80000312002
:100D60008DF801009DF808008DF802009DF809003B
:100D70008DF803009DF80A008DF804009DF80B0023
:100D80008DF805009DF80C008DF8060008226946D4
:100D90004048006801F062F8322004F05FFD05224F
:100DA00002A94FF49870FFF7C3FC5A208DF8000099
:100DB00032208DF801009DF808008DF802009DF8A2
:100DC00009008DF803009DF80A008DF804009DF8D5
:100DD0000B008DF805009DF80C008DF80600082228
:100DE00069462C48006801F039F8322004F036FDDD
:100DF000052202A94FF4C870FFF79AFC46208DF82F
:100E0000000032208DF801009DF808008DF80200E6
:100E10009DF809008DF803009DF80A008DF8040084
:100E20009DF80B008DF805009DF80C008DF806006C
:100E3000082269461748006801F010F8322004F0D3
:100E40000DFD052202A94FF49C70FFF771FC5A209A
:100E50008DF8000033208DF801009DF808008DF812
:100E600002009DF809008DF803009DF80A008DF836
:100E700004009DF80B008DF805009DF80C008DF81E
:100E80000600082269460348006800F0E7FF3220A8
:100E900002E000008400002004F0E0FC052202A92A
:100EA0004FF4CC70FFF744FC46208DF8000033204F
:100EB0008DF801009DF808008DF802009DF80900EA
:100EC0008DF803009DF80A008DF804009DF80B00D2
:100ED0008DF805009DF80C008DF806000822694683
:100EE000FE48006800F0BAFF322004F0B7FC05228B
:100EF00002A99001FFF71CFC5A208DF80000342055
:100F00008DF801009DF808008DF802009DF8090099
:100F10008DF803009DF80A008DF804009DF80B0081
:100F20008DF805009DF80C008DF806000822694632
:100F3000EA48006800F092FF322004F08FFC05229E
:100F400002A94FF4D070FFF7F3FB46208DF80000A4
:100F500034208DF801009DF808008DF802009DF8FE
:100F600009008DF803009DF80A008DF804009DF833
:100F70000B008DF805009DF80C008DF80600082286
:100F80006946D648006800F069FF322004F066FC2C
:100F9000052202A94FF4A470FFF7CAFB5A208DF86E
:100FA000000035208DF801009DF808008DF8020042
:100FB0009DF809008DF803009DF80A008DF80400E3
:100FC0009DF80B008DF805009DF80C008DF80600CB
:100FD00008226946C148006800F040FF322004F052
:100FE0003DFC052202A94FF4D470FFF7A1FB462077
:100FF0008DF8000035208DF801009DF808008DF86F
:1010000002009DF809008DF803009DF80A008DF894
:1010100004009DF80B008DF805009DF80C008DF87C
:10102000060008226946AD48006800F017FF32202C
:1010300004F014FC052202A94FF4A870FFF778FB16
:101040005A208DF8000036208DF801009DF8080028
:101050008DF802009DF809008DF803009DF80A0044
:101060008DF804009DF80B008DF805009DF80C002C
:101070008DF80600082269469848006800F0EEFEE8
:10108000322004F0EBFB052202A94FF4D870FFF7E1
:101090004FFB46208DF8000036208DF801009DF8AA
:1010A00008008DF802009DF809008DF803009DF8F6
:1010B0000A008DF804009DF80B008DF805009DF8DE
:1010C0000C008DF80600082269468448006800F08C
:1010D000C5FE322004F0C2FB052202A94FF4AC7019
:1010E000FFF726FB5A208DF8000037208DF801000D
:1010F0009DF808008DF802009DF809008DF80300A6
:101100009DF80A008DF804009DF80B008DF805008D
:101110009DF80C008DF80600082269466F480068AB
:1011200000F09CFE322004F099FB052202A94FF446
:10113000DC70FFF7FDFA46208DF8000037208DF8AF
:1011400001009DF808008DF802009DF809008DF857
:1011500003009DF80A008DF804009DF80B008DF83F
:1011600005009DF80C008DF80600082269465B48D2
:10117000006800F073FE322004F070FB052202A923
:101180004FF4B070FFF7D4FA5A208DF800003820E1
:101190008DF801009DF808008DF802009DF8090007
:1011A0008DF803009DF80A008DF804009DF80B00EF
:1011B0008DF805009DF80C008DF8060008226946A0
:1011C0004648006800F04AFE322004F047FB08223F
:1011D00002A94FF4E070FFF7ABFA46208DF800004B
:1011E00038208DF801009DF808008DF802009DF868
:1011F00009008DF803009DF80A008DF804009DF8A1
:101200000B008DF805009DF80C008DF806000822F3
:1012100069463248006800F021FE322004F01EFBCF
:10122000052202A94FF4B470FFF782FA5A208DF814
:10123000000039208DF801009DF808008DF80200AB
:101240009DF809008DF803009DF80A008DF8040050
:101250009DF80B008DF805009DF80C008DF8060038
:10126000082269461D48006800F0F8FD322004F0AD
:10127000F5FA052202A94FF4E470FFF759FA462067
:101280008DF8000039208DF801009DF808008DF8D8
:1012900002009DF809008DF803009DF80A008DF802
:1012A00004009DF80B008DF805009DF80C008DF8EA
:1012B0000600082269460948006800F0CFFD322088
:1012C00004F0CCFA052202A95020FFF731FA57208A
:1012D0008DF800004B208DF8010001E08400002013
:1012E0009DF808008DF802002E208DF803009DF86F
:1012F0000A008DF804009DF80B008DF805009DF89C
:101300000C008DF8060030208DF8070020208DF8A5
:101310000700082269466E48006800F09FFD3220F1
:1013200004F09CFA062202A95820FFF701FA572080
:101330008DF8000042208DF801009DF808008DF81E
:1013400002002E208DF805009DF809008DF803009D
:101350009DF80A008DF804009DF80C008DF8060039
:101360009DF80D008DF8070008226946584800686E
:1013700000F074FD322004F071FA062202A9602008
:10138000FFF7D6F95A208DF8000057208DF801009C
:101390009DF808008DF802002E208DF806009DF8BB
:1013A00009008DF803009DF80A008DF804009DF8EF
:1013B0000B008DF805009DF80D008DF80700082240
:1013C00069464348006800F049FD322004F046FABF
:1013D000062202A96820FFF7ABF946208DF800002D
:1013E00057208DF801009DF808008DF802002E208E
:1013F0008DF806009DF809008DF803009DF80A009D
:101400008DF804009DF80B008DF805009DF80D0087
:101410008DF80700082269462D48006800F01EFD7F
:10142000322004F01BFA062202A97020FFF780F98F
:101430005A208DF800004A208DF801009DF8080020
:101440008DF802002E208DF806009DF809008DF819
:1014500003009DF80A008DF804009DF80B008DF83C
:1014600005009DF80D008DF8070008226946184810
:10147000006800F0F3FC322004F0F0F9062202A923
:101480007820FFF755F946208DF8000057208DF899
:1014900001009DF808008DF802002E208DF806004E
:1014A0009DF809008DF803009DF80A008DF80400EE
:1014B0009DF80B008DF805009DF80D008DF80700D4
:1014C000082269460248006800F0C8FC1FBD000001
:1014D0008400002010B50021837A012202FA03F172
:1014E0003D4A126842F001023B4B1A603A4A1C32F4
:1014F00012688A43384B1C331A60027BCAB9364AD9
:101500000C3212688A43344B0C331A604288C38809
:1015100042EA0343304A4032847A42F83430028847
:10152000838842EA03432C4A4032847A02EBC402A5
:101530005360027B012A19D1274A0C3212680A43F0
:10154000254B0C331A604288038842EA0343224A3F
:101550004032847A42F83430C288838842EA0343B6
:101560001D4A4032847A02EBC4025360C27A3AB90F
:10157000194A121D12688A43174B1B1D1A6006E098
:10158000154A121D12680A43134B1B1D1A6002896B
:1015900032B9114A143212688A430F4B14331A605D
:1015A0000289012A06D10C4A143212680A430A4BF6
:1015B00014331A60427B012A06D1074A1C32126892
:1015C0000A43054B1C331A60034A126822F00102D9
:1015D000014B1A6010BD0000006600401AB143695B
:1015E0000B43436102E043698B434361704730B56D
:1015F000024600200023146824F0020414601468DA
:1016000044F00104146000E05B1C546804F0010421
:101610001CB94FF6FF74A342F6D1546804F00104DC
:101620000CB900206CE08C79012C04D1146844F0D2
:101630008004146003E0146824F080041460CC7902
:10164000012C04D1146844F04004146003E01468D1
:1016500024F0400414600C7A012C04D1146844F086
:101660002004146003E0146824F0200414604C7A11
:10167000012C04D1146844F01004146003E01468D1
:1016800024F0100414608C7A012C04D1146844F006
:101690000804146003E0146824F008041460CC7A91
:1016A000012C04D1146844F00404146003E01468AD
:1016B00024F0040414608C78A407CD7844EA05640F
:1016C0000D7944EA05444D7944EA05540D886D1EB0
:1016D0002C43D461146824F001041460002300E05A
:1016E0005B1C546804F001041CB14FF6FF74A34264
:1016F000F6D1546804F001040CB1002000E0012090
:1017000030BD00002DE9F0418AB004460D46164672
:101710001F46DDF840800121042001F07DFE0121FB
:10172000480601F069FE4FF48050ADF82400032014
:101730008DF8260018208DF8270009A92C4800F004
:1017400035FD4FF40060ADF8240048208DF82700E7
:1017500009A9274800F02AFD00208DF81E008DF809
:101760001F008DF8200001208DF8210000208DF849
:1017700022008DF823008DF81A808DF81B408DF81B
:101780001C608DF81D50ADF8187006A91948FFF7B8
:101790002EFF00208DF812008DF8130001208DF827
:1017A00014000020ADF80800ADF80A00ADF80C00F8
:1017B000ADF80E00ADF8100001208DF8150002A85C
:1017C000FFF788FE012202210A48FFF707FF1420D5
:1017D0008DF8040001208DF805008DF806008DF8C5
:1017E000070001A801F086FB0AB0BDE8F081000007
:1017F000000801400064004010B500F5D87303EB09
:1018000001131B6803F004031372137A53B900F534
:10181000D87303EB01131B6840F2FF7404EA5353BF
:10182000136009E000F5D87303EB01131B686FF038
:10183000604404EAD303536000F5D87303EB01134B
:101840001B6803F00203537200F5D87303EB011316
:101850005B6803F00F03937200F5D87303EB011379
:101860005B681B0AD37400F5D87303EB01139B6804
:10187000D37200F5D87303EB01139B681C0A147331
:1018800000F5D87303EB01139B681C0C547300F52F
:10189000D87303EB01139B681B0E937300F5D87389
:1018A00003EB0113DB68D37300F5D87303EB01136B
:1018B000DB681C0A147400F5D87303EB0113DB68B2
:1018C0001C0C547400F5D87303EB0113DB681B0E7A
:1018D000937421B9C36843F02003C36003E0036934
:1018E00043F02003036110BD1CB5002406E0BE498F
:1018F000A01C085C0DF80400601CC4B2072CF6DBC9
:10190000BA48007801281CD1B7480078532801D183
:10191000012000E00020B4494978542901D1012177
:1019200000E000210840002806D0AF4880784F280A
:1019300003D10020AE4908703CE10120AC49087099
:1019400038E1AA4800780228F6D1A74800785A283A
:1019500072D1A5484078372859D009DCA0F1300071
:1019600007287ED2DFE800F0232A31383F454C00BB
:101970004C280ED006DC382850D0392855D04A28BB
:101980006FD162E051280BD0532857D0572868D127
:1019900061E0052269464FF48870FEF701FF61E0BF
:1019A000052269464FF48C70FEF7FAFE5AE00522D4
:1019B00069464FF49070FEF7F3FE53E00522694646
:1019C0004FF49470FEF7ECFE4CE0052269464FF4AC
:1019D0009870FEF7E5FE45E0052269464FF49C70DD
:1019E000FEF7DEFE3EE0052269469001FEF7D8FED6
:1019F00038E0052269464FF4A470FEF7D1FE31E0CD
:101A0000052269464FF4A870FEF7CAFE2AE00522B7
:101A100069464FF4AC70FEF7C3FE23E00522694629
:101A20004FF4B070FEF7BCFE1CE0052269464FF48F
:101A3000B470FEF7B5FE15E015E012E00522694628
:101A40004FF4E870FEF7ACFE0CE006226946702009
:101A5000FEF7A6FE06E0062269466020FEF7A0FE1D
:101A600000E000BF00BF60480078462873D15E48A0
:101A7000407837285AD009DCA0F1300007287FD2FF
:101A8000DFE800F0232A31383F464D004C280ED0C5
:101A900006DC382851D0392856D04A2870D163E066
:101AA00051280BD0532858D0572869D162E005221D
:101AB00069464FF4B870FEF773FE62E0052269468E
:101AC0004FF4BC70FEF76CFE5BE0052269464FF4F4
:101AD000C070FEF765FE54E0052269464FF4C470FD
:101AE000FEF75EFE4DE0052269464FF4C870FEF732
:101AF00057FE46E0052269464FF4CC70FEF750FED3
:101B00003FE0052269464FF4D070FEF749FE38E009
:101B1000052269464FF4D470FEF742FE31E00522FB
:101B200069464FF4D870FEF73BFE2AE0052269466D
:101B30004FF4DC70FEF734FE23E0052269464FF4D3
:101B4000E070FEF72DFE1CE0052269464FF4E470BC
:101B5000FEF726FE15E015E012E0052269464FF477
:101B6000EC70FEF71DFE0CE0062269467820FEF7B9
:101B700017FE06E0062269466820FEF711FE00E027
:101B800000BF00BF18480078572813D11648407886
:101B9000422807D04B280BD1052269465020FEF77A
:101BA000FFFD06E0062269465820FEF7F9FD00E039
:101BB00000BF00BF0C4800784C2814D1002404E07A
:101BC00030200DF80400601CC4B2082CF8DB2E2075
:101BD0008DF806000749098801F5007188B20822CE
:101BE0006946FEF7DDFD1CBD610000209600002067
:101BF00098000020B80100201CB50024002001F04E
:101C0000CDF900BF0120102103461DA2CDE900102F
:101C10000A21204600F088FE04F10800C4B2802C9E
:101C2000F0DB01201021034615A2CDE900101E2192
:101C3000002000F079FE012012A310221E21009046
:101C4000104600F0C8FB0120102103460CA2CDE98C
:101C500000101E21782000F067FE002400BF012044
:101C60001021034606A2CDE900103221204600F0E3
:101C70005BFE04F10800C4B2802CF0DB1CBD000048
:101C80002A000000D5FDD4DAC9E8D6C3B2CECAFD19
:101C90000000000010B502460020936803F0806346
:101CA000B3F1806F00D110E0936803F00063B3F1EB
:101CB000006F01D1012008E0936803F08053B3F175
:101CC000805F01D1022000E00420042874D002F5D6
:101CD000C07303EB00131B6803F0010402F5C0732B
:101CE00003EB00131C600B7A7BB94B7A0C8843EA38
:101CF000445302F5C07404EB00142468234302F536
:101D0000C07404EB0014236010E00B7A4C6843EAC3
:101D1000C4034C7A234302F5C07404EB0014246816
:101D2000234302F5C07404EB001423608B7A03F0A4
:101D30000F038B7202F5C07303EB00135B6823F093
:101D40000F0402F5C07303EB00135C6002F5C0736F
:101D500003EB00135B688C7A234302F5C07404EB39
:101D6000001463608B7B1C064B7B44EA03440B7BB3
:101D700044EA0323CC7A234302F5C07404EB001435
:101D8000A3608B7C1C064B7C44EA03440B7C44EA36
:101D90000323CC7B234302F5C07404EB0014E360FF
:101DA00002F5C07303EB00131B6843F0010402F556
:101DB000C07303EB00131C6010BD000010B5024699
:101DC000002321B1012907D002290FD109E0906831
:101DD0001D4C00EA04030BE090681C4C00EA04036D
:101DE00006E090681A4C00EA040301E0002300BFFB
:101DF00000BF184C181BA34216D007DC83B16FF04C
:101E00008060184470B1022818D111E0B0F5007F4D
:101E100010D0114C204448B1B0F5003F0ED10BE07A
:101E200002230DE000230BE0002309E0002307E07C
:101E3000012305E0012303E0012301E0002300BFAB
:101E400000BFD8B210BD000003000004000300086A
:101E500000000310000100080001FFF72DE9F04128
:101E600086B0054688461646002401950295042052
:101E70008DF80C0000208DF80D008DF80E6000BF6D
:101E800006E018F804100DF10F000155601C84B233
:101E9000B442F6DB01A90A48FFF7FCFE074600241E
:101EA00001E0601C84B239460548FFF787FF18B986
:101EB00040F6FF708442F4DB06B0BDE8F08100001C
:101EC00000640040704700000C48006820F080006B
:101ED0000A49086011E04FF40051094800F0FAF98E
:101EE00040F6B83003F0BAFC4FF40051044800F05B
:101EF000F3F940F6B83003F0B1FCECE70004014020
:101F000000100140014600200022074B1B6803EA35
:101F10000102054B14331B680B4013B10AB10120B9
:101F200000E0002070470000000401401CB50020C4
:101F300001F034F8012025A3102203210090002095
:101F400000F049FA012023A310221821009000205C
:101F500000F041FA012021A310222D210090002041
:101F600000F039FA0120102103231EA2CDE9001050
:101F70001946642000F0D8FC0120082103461AA26B
:101F8000CDE9001003216C2000F0CEFC01201021CF
:101F9000034616A2CDE900101821702000F0C4FC01
:101FA00001200821034610A2CDE900101821782055
:101FB00000F0BAFC0120102103230DA2CDE900108E
:101FC0002D21682000F0B0FC1CBD0000C1F7C1BF8E
:101FD00000000000C0DBBCC600000000B2EED1B9BA
:101FE000000000006D2F6800330000006D0000004D
:101FF0004B5061001CB5002000F0D0FF01202923C8
:102000003F2205210090002000F0C0F90120292383
:102010007F22052100903F2000F0B8F9012020A385
:10202000102203210090104600F0D5F901201EA3D4
:102030001022032100904F2000F0CDF901201CA3B5
:1020400010222D210090002000F0C5F90120082168
:10205000034619A2CDE9001014212E2000F064FCE3
:1020600001201021034615A2CDE9001015213420CE
:1020700000F05AFC01201021022311A2CDE900102A
:1020800015216B2000F050FC0120082103460AA214
:10209000CDE900102A21662000F046FC1CBD00009E
:1020A000CEC2B6C800000000CEC2B2EE00000000F2
:1020B000BDC7B6C8000000006F000000430000006C
:1020C000506100001CB5002000F068FF01200EA345
:1020D000102211460090152000F07DF901201021FA
:1020E00004230DA2CDE900102621582000F01CFC8D
:1020F0000120082103460AA2CDE900102921612010
:1021000000F012FC1CBD0000CFF2C1F7C1BFC1BF7F
:10211000B3CCA3BA000000006D202F6800000000BF
:10212000330000001CB5002000F038FF012012A38E
:10213000102200210090104600F04DF901201021DE
:10214000082311A2CDE90010042000F0EDFB0120CE
:10215000102108230FA2CDE900102021042000F057
:10216000E3FB0120102109230DA2CDE9001030214D
:10217000042000F0D9FB1CBDCFF2D0DED5FDB2CEDD
:10218000CAFDA3BA000000003730257E3830253A5A
:10219000000000003830257E3930253A000000006C
:1021A0003930257E313030253A0000002DE9F041EC
:1021B000024600250026002000230024002791F875
:1021C00003C00CF00F0591F803C00CF0100CBCF12B
:1021D000000F03D091F802C04CEA050591F800C049
:1021E000BCF1000F31D0146800202BE04FF0010C3F
:1021F0000CFA00F3B1F800C00CEA03069E4220D1AD
:1022000083004FF00F0C0CFA03F7BC4305FA03FCF4
:102210004CEA040491F803C0BCF1280F06D14FF03A
:10222000010C0CFA00FCC2F814C00AE091F803C0DB
:10223000BCF1480F05D14FF0010C0CFA00FCC2F8BC
:1022400010C0401C0828D1D31460B1F800C0BCF104
:10225000FF0F34DD546800202EE000F1080C4FF031
:10226000010808FA0CF3B1F800C00CEA03069E421C
:1022700021D183004FF00F0C0CFA03F7BC4305FA91
:1022800003FC4CEA040491F803C0BCF1280F05D10B
:1022900000F1080C08FA0CF8C2F8148091F803C099
:1022A000BCF1480F07D100F1080C4FF0010808FA03
:1022B0000CF8C2F81080401C0828CED35460BDE84A
:1022C000F0810246002093680B400BB1012000E032
:1022D0000020704741617047016170472DE9FF4F51
:1022E00085B081468A460020039083460798A0EB7C
:1022F00009050898A0EB0A06CDF80890CDF804A0CF
:10230000002D01DD012705E00DB9002702E04FF0A7
:10231000FF376D42002E02DD4FF0010806E016B9CE
:102320004FF0000802E04FF0FF387642B54201DD81
:102330002C4600E03446002004901EE0019AD1B201
:10234000029AD0B2129A00F02DFF0398284403900D
:10235000B3440398A04205DD0398001B0390029844
:1023600038440290A34504DDABEB040B01984044D4
:1023700001900498401C80B20490611C049888422B
:10238000DCDD00F01FFE09B0BDE8F08F2DE9F84359
:1023900005460E4617469846089C33463A4631464F
:1023A00028460094FFF79AFF43462A4631462846BE
:1023B0000094FFF793FF43463A464146284600946F
:1023C000FFF78CFF43463A46314638460094FFF704
:1023D00085FFBDE8F8832DE9F04106460F46144617
:1023E0001D46DDF8188026E0102C06D143462A460B
:1023F0003946304600F022F913E0182C06D1434646
:102400002A463946304600F091F90AE0202C06D1E0
:1024100043462A463946304600F00AFA01E0BDE854
:10242000F0813019C6B2C4F18000B04202DA002651
:102430003819C7B2AD1C28780028D5D100BFEEE707
:102440002DE9FF4F81B006460F469946DDF838A0CA
:102450004FF00008002400250398203800F0FF0802
:102460007F2E02DD0026B81CC7B2B9F1100F30D1A3
:1024700000242BE0BAF1000F05D004EB08106B49E3
:1024800011F800B006E004EB08106849085CC0438E
:1024900000F0FF0B002515E08020284100EA0B002A
:1024A00038B13A19D1B27219D0B2012200F07AFED5
:1024B00006E03A19D1B27219D0B2002200F072FED1
:1024C000681CC5B2082DE7DB601CC4B2102CD1DB40
:1024D000A7E0B9F1080F30D100242BE0BAF1000FCA
:1024E00005D0534800EBC80010F804B006E050488F
:1024F00000EBC800005DC04300F0FF0B002515E0B5
:102500008020284100EA0B0038B13A19D1B2721983
:10251000D0B2012200F046FE06E03A19D1B272199B
:10252000D0B2002200F03EFE681CC5B2082DE7DBE9
:10253000601CC4B2082CD1DB73E0B9F1180F32D1A2
:1025400000242DE0BAF1000F06D0182000FB08404F
:10255000384911F800B007E0182000FB0840354961
:10256000085CC04300F0FF0B002515E080202841E7
:1025700000EA0B0038B13A19D1B27219D0B2012277
:1025800000F010FE06E03A19D1B27219D0B2002262
:1025900000F008FE681CC5B2082DE7DB601CC4B261
:1025A000182CCFDB3DE0B9F1200F37D1002432E009
:1025B000BAF1000F06D0302000FB08401E4911F888
:1025C00000B007E0302000FB08401B49085CC04316
:1025D00000F0FF0B00251AE08020284100EA0B00E4
:1025E00060B104EBD47207EB6202D1B27219083207
:1025F000D0B20122009400F0D5FD06E03A19D1B224
:102600007219D0B2002200F0CDFD681CC5B2082DB1
:10261000E2DB601CC4B2302CCADB02E005B0BDE8CE
:10262000F08F00F0CFFC00BFF8E70000E46900087D
:10263000EC660008D46F0008BC7800082DE9FF4F55
:1026400083B080468946924633200190002562E09F
:1026500005EB0510344911F810009AF80010884273
:1026600057D105EB0510304901EB400040789AF84E
:10267000011088424DD1002448E0069840B105EB96
:102680000510294901EB4000801C005D029009E023
:1026900005EB0510244901EB4000801C005DC043A0
:1026A000C0B2029000262DE08020304102990840FF
:1026B00098B1274604EBD77209EB6202D1B2A34668
:1026C00004EBDB725210A4EB420208EBC20232446C
:1026D000D0B2012200F066FD12E0274604EBD7726B
:1026E00009EB6202D1B2A34604EBDB725210A4EBF9
:1026F000420208EBC2023244D0B2002200F052FD86
:10270000701CC6B2082ECFDB601CC4B2202CB4DB18
:1027100004E0681CC5B20198854299DB00BF00F057
:1027200051FC07B0BDE8F08FCC7800082DE9FE4FD2
:102730000746884691469B460620029000256DE09C
:1027400005EB850000EB4510384911F8100099F8A9
:102750000010884260D105EB850000EB451033493D
:1027600001EB4000407899F80110884254D10024D0
:102770004FE0BBF1000F0AD005EB850000EB4510E0
:102780002A4901EB4000801C10F804A00BE005EB87
:10279000850000EB4510254901EB4000801C005DE1
:1027A000C04300F0FF0A00262FE08020304100EAFD
:1027B0000A00A0B1032094FBF0F04044C0B20190A5
:1027C000032094FBF0F100FB114007EBC000304404
:1027D000C0B201220090019900F0E4FC13E0032054
:1027E00094FBF0F04044C0B20190032094FBF0F160
:1027F00000FB114007EBC0003044C0B20022009043
:10280000019900F0CFFC701CC6B2082ECDDB601C15
:10281000C4B2482CADDB04E0681CC5B20298854206
:102820008EDB00BF00F0CEFBBDE8FE8F927F00087C
:102830002DE9FF4F83B080468946924606200190DD
:10284000002566E005EB8510364911F810009AF86E
:10285000001088425BD105EB8510324901EB400046
:1028600040789AF80110884251D100244CE0069833
:1028700040B105EB85102B4901EB4000801C005D49
:10288000029009E005EB8510264901EB4000801C11
:10289000005DC043C0B20290002731E08020384183
:1028A00002990840A8B12646E21704EB927209EBA0
:1028B000A202D1B2A346E21704EB92729210A4EBEB
:1028C000820208EBC2023A44D0B2012200F06AFC54
:1028D00014E02646E21704EB927209EBA202D1B291
:1028E000A346E21704EB92729210A4EB820208EB6B
:1028F000C2023A44D0B2002200F054FC781CC7B2A5
:10290000082FCBDB601CC4B2802CB0DB04E0681C59
:10291000C5B20198854295DB00BF00F053FB07B0BC
:10292000BDE8F08F4E8100082DE9F84F0646884635
:1029300091469A46DDE90A4B0027102C05D1204626
:1029400004EBD071C1F347051CE0082C06D12046EA
:1029500004EBD0714910891CCDB213E0182C06D1BC
:10296000204604EBD0714910891ECDB20AE0202C1C
:1029700006D1204604EBD0714910091FCDB201E009
:10298000BDE8F88F002713E0CDF800B019F8072054
:10299000234641463046FFF753FD7019C6B2782EE4
:1029A00004DD002608EB040000F0FF08781CC7B225
:1029B0005745E9DB00BFE3E700BFFEE710B5402164
:1029C0000F48FFF787FC0E48006820F070400C4964
:1029D00008600846006840F040500860002009493F
:1029E0000860042002F060FF40210548FFF774FCF6
:1029F000042002F059FF40210148FFF76BFC10BD95
:102A0000000C01409C81214208B50121082000F002
:102A100003FDE020ADF8000010208DF80300032036
:102A20008DF8020069460448FFF7C0FBE021024828
:102A3000FFF752FC08BD0000000C014010B540211A
:102A40000F48FFF747FC0E48006820F070400C4923
:102A500008600846006840F04050086001200949BD
:102A60000860042002F020FF40210548FFF734FCF5
:102A7000042002F019FF40210148FFF72BFC10BD94
:102A8000000C01409C81214270B50546002400F0F5
:102A90003DFD002616E040210F48FFF71BFC0420F7
:102AA00002F002FF40210C48FFF716FC6006040EFE
:102AB0000A48006808B1601CC4B2042002F0F4FEA9
:102AC000701CC6B2082EE6DB15B9FFF7B7FF01E0B0
:102AD000FFF774FF204670BD000C01401C812142AD
:102AE00070B504461448006820F070401249086030
:102AF0000846006840F04050086040210E48FFF74B
:102B0000E9FB002514E0E0090C4908606006040EAA
:102B1000042002F0C9FE40210748FFF7DDFB042036
:102B200002F0C2FE40210448FFF7D4FB681CC5B286
:102B3000082DE8DB70BD0000000C01409C812142A3
:102B400010B51348006820F070401149086008462D
:102B5000006840F04050086001200E49086002F013
:102B6000A3FE40210A48FFF7B7FB052002F09CFEB8
:102B700000200949C1F89C01052002F095FE402182
:102B80000348FFF7A7FB052002F08EFE10BD0000F2
:102B9000000C01409C8121420080214210B5124866
:102BA000006820F07040104908600846006840F056
:102BB0004050086040210C48FFF78CFB052002F0D4
:102BC00073FE002009490860052002F06DFE4021D7
:102BD0000548FFF781FB052002F066FE012004494D
:102BE000C1F89C0110BD0000000C01409C812142F5
:102BF0000080214210B5002400F088FC012002F082
:102C000053FE40210B48FFF767FB07E0601C84B2CE
:102C1000CD2C03DDFFF7C2FF012010BD8021054848
:102C2000FFF74FFB0028F1D140210248FFF752FB8C
:102C30000020F2E7000C014008B50121082000F057
:102C4000EBFB0720ADF8000028208DF803000320DF
:102C50008DF8020069460248FFF7A8FA08BD000097
:102C6000000C014010B504211848FFF72AFB48B1B9
:102C700002211648FFF725FB20B101211348FFF779
:102C800020FB00BB142002F0E9FD04210F48FFF7F0
:102C900018FB40B902210D48FFF713FB08B90424C3
:102CA00012E0012410E002210848FFF70AFB08B9EE
:102CB000022409E001210548FFF703FB08B90324BA
:102CC00002E0052400E00024204610BD000C014075
:102CD00008B50121582000F09FFB4FF40050ADF8DB
:102CE000000010208DF8030003208DF802006946D3
:102CF0000148FFF75BFA08BD0010014010B52A48F3
:102D00000068401C284908600822284926480068B5
:102D100000F032F92649098801F5007188B20822CD
:102D20002449FDF73DFD2249098801F5027188B269
:102D300008221E49FDF734FD1B4800681E498842E1
:102D400030D31B490C88E11704EB11710911481CA1
:102D500004221A4900F010F915480088103014496F
:102D60000880042215494FF4F870FDF719FD104949
:102D7000098801F5007188B208220E49FDF710FD9F
:102D8000002009490860082208490748006800F047
:102D9000F3F80749098801F5027188B2082203494E
:102DA000FDF7FEFC10BD0000B4010020AC010020C6
:102DB000B80100202300002040420F008E000020B8
:102DC00008B5002000F0EAF8012014A31022002129
:102DD00000900A20FFF7FFFA012014A310221146E9
:102DE00000900A20FFF7F7FA012014A310222021F7
:102DF00000900A20FFF7EFFA012014A310223021DF
:102E000000900A20FFF7E7FA00200823202204217F
:102E100000907120FFF714FB08BD0000C9E8D6C37D
:102E2000D5FDCFF2B2CECAFD00000000C9E8D6C37E
:102E3000B7B4CFF2B2CECAFD00000000C9E8D6C3D5
:102E4000D0DED5FDB2CECAFD00000000C9E8D6C371
:102E5000CDA8D1B6B5D8D6B70000000070B5002512
:102E600000201049087001F0DBFF382001F0F8FF66
:102E700001F058FF0546284602F0B6FB0024012069
:102E80000849087001F0CCFF382001F0E9FF01F09B
:102E900049FF0446204602F0FDFB204602F0E2FB1B
:102EA00070BD0000BD01002000BFFEE7704770B597
:102EB000049C0AB18D1AEAB2012B02D12D2525708E
:102EC00001E02025257012E08A4204D11AB12E2596
:102ED00065544D1EE9B20A25B0FBF5F605FB160553
:102EE000303565540A25B0FBF5F04D1EE9B20029D6
:102EF000EADC70BD70B5002100230F22C47804B352
:102F0000154C246804F4E064C4F5E064210AC1F1BE
:102F10000403CA40447804FA03F18478144021433E
:102F200009010E4C0678A155047804F01F05012410
:102F3000AC4005786D11AD0005F1E025C5F8004104
:102F400009E0047804F01F050124AC40044D067824
:102F5000761145F8264070BD0CED00E000E400E07D
:102F600080E100E002490143024A1160704700001D
:102F70000000FA050CED00E030B50B46511E0AE0EA
:102F80000A24B0FBF4F504FB150430345C540A2425
:102F9000B0FBF4F0491E0029F2DC30BD10B5044648
:102FA00034B1FF224FF480610548FDF750F904E089
:102FB0004FF480610248FDF752F900F003F810BDAC
:102FC0003C02002070B500241BE004F1B000002199
:102FD00000F028F90021022000F024F9002110203F
:102FE00000F020F9002508E005EBC411064A505C0A
:102FF000012100F017F9681CC5B2802DF4DB601CBC
:10300000C4B2082CE1DB70BD3C02002010B50021E9
:103010008D2000F007F90021102000F003F90021B5
:10302000AE2000F0FFF810BD10B500218D2000F09B
:10303000F9F80021142000F0F5F80021AF2000F08D
:10304000F1F810BD10B501F09FFB00F07BF8C8202F
:1030500002F004FC00F090F8FFF7D8FF0021AE204A
:1030600000F0E0F80021022000F0DCF80021102040
:1030700000F0D8F80021402000F0D4F80021812091
:1030800000F0D0F80021CF2000F0CCF80021A120E2
:1030900000F0C8F80021C82000F0C4F80021A620E4
:1030A00000F0C0F80021A82000F0BCF800213F206B
:1030B00000F0B8F80021D32000F0B4F80021084651
:1030C00000F0B0F80021D52000F0ACF800218020FD
:1030D00000F0A8F80021D92000F0A4F80021F12088
:1030E00000F0A0F80021DA2000F09CF80021122066
:1030F00000F098F80021DB2000F094F80021402037
:1031000000F090F80021202000F08CF8002102202F
:1031100000F088F800218D2000F084F800211420B0
:1031200000F080F80021A42000F07CF80021A62007
:1031300000F078F80021AF2000F074F8FFF774FF7A
:1031400010BD000008B50121042000F065F91C2025
:10315000ADF8000010208DF8030003208DF8020068
:1031600069460448FFF722F81C210248FFF7B4F82B
:1031700008BD00000008014010B504210848FFF711
:10318000ABF8642002F06AFB04210548FFF7A2F8BF
:10319000642002F063FB04210148FFF79DF810BD95
:1031A00000080140F0B503461446E4B1CD1701EB29
:1031B0005575ED1003EBC515194E755D0A46CE1712
:1031C00001EB5676F610A1EBC6070126BE40F6B21B
:1031D00035430846CE1701EB5676F61003EBC616BC
:1031E0000F4FBD551AE0CD1701EB5575ED1003EBF0
:1031F000C5150B4E755D0A46CE1701EB5676F610D7
:10320000A1EBC6070126BE40B5430846CE1701EB29
:103210005676F61003EBC616014FBD55F0BD000003
:103220003C02002070B504460D4625B108210A482D
:10323000FFF752F803E008210748FFF74BF8102189
:103240000548FFF747F8E1B2044801F013FB1021ED
:103250000148FFF741F870BD00080140003001400F
:103260001CB50020FFF79AFE01201FA310220021A9
:1032700000901046FFF7AFF801201FA3102211465F
:1032800000900320FFF7A7F801201DA310222021A2
:1032900000900320FFF79FF80120102103231AA2BA
:1032A000CDE900106020FFF73FFB0120102104232F
:1032B00016A2CDE9001020216020FFF735FB012088
:1032C0000821034613A2CDE9001023216920FFF74E
:1032D0002BFB0120102105230FA2CDE90010302186
:1032E0000220FFF721FB1CBDCFF2D0DED5FDB2CE10
:1032F000CAFDA3BA00000000C1E3B5E3A3BA000011
:10330000C7D0B3FDA3BA00004B5061006D202F68F9
:1033100000000000330000003C3130253A0000007E
:1033200010B54FF48030FEF7EDFDE8B11BE002214F
:103330000E48FEF7D1FF08220D494FF4F070FDF75B
:103340002FFA4FF400510B48FEF7C4FF40F6B83097
:1033500002F084FA4FF400510648FEF7BDFF40F634
:10336000B83002F07BFAE2E710BD0000000801402F
:103370002300002000100140704700001CB5002011
:10338000FFF70CFE012016A3102200210090084632
:10339000FFF721F8012014A310222021009018200B
:1033A000FFF719F801201021032311A2CDE9001025
:1033B00020210020FFF7B8FA0120102103230DA2DD
:1033C000CDE9001030210020FFF7AEFA012006A35E
:1033D0001022302100901820FEF7FDFF1CBD0000D8
:1033E000C7E3BDC700000000B6C8A3BA00000000D4
:1033F0002B3330002D33300029B1064AD269024305
:10340000044BDA6104E0034AD2698243014BDA617A
:10341000704700000010024029B1064A9269024339
:10342000044B9A6104E0034A92698243014B9A611A
:10343000704700000010024030B500210022002437
:1034400000232D4D6D6805F00C0121B1042905D034
:10345000082923D105E0294D056022E0274D0560AC
:103460001FE0254D6D6805F47012234D6D6805F45D
:103470008034022505EB92421CB9214D554305606D
:103480000BE01D4D6D6805F400351DB11C4D554315
:10349000056002E0194D5543056002E0174D0560D7
:1034A00000BF00BF144D6D6805F0F0010909154D0E
:1034B0006B5C0568DD4045600F4D6D6805F4E061AB
:1034C000090A104D6B5C4568DD4085600A4D6D68EA
:1034D00005F46051C90A0B4D6B5C4568DD40C56061
:1034E000054D6D6805F44041890B074D6B5CC5685F
:1034F000B5FBF3F5056130BD0010024000127A0003
:1035000000093D00BE010020CE01002008B50121C8
:103510000820FFF781FF8020ADF8000004208DF81F
:10352000030069460348FEF741FE80210148FEF78B
:10353000D3FE08BD000C01401CB5FE480078FE49D2
:10354000087008460078042881F26780FB480078FC
:103550000978884207D1F8480078032807D100206D
:10356000F549087003E0F4480078F4490870F2481F
:103570000078032877D1F2480078002874D1F14808
:103580000078002871D0012870D0022802D00328CA
:1035900068D16CE001F0A4F80620E9490870002029
:1035A000E84908705020E84908800522E749E648C4
:1035B0000088FDF7BDF8E44800880830E24908803B
:1035C0000622E349E0480088FDF7B2F8DE480088AB
:1035D0000830DD4908800622DE49DB480088FDF717
:1035E000A7F8D94800880830D74908800622DA4968
:1035F000D5480088FDF79CF8012010210523D34A07
:10360000CDE9001000214F20FFF78EF90120102195
:103610000623CF4ACDE900104F20FFF785F901209E
:1036200010210623CB4ACDE9001020214F20FFF7BF
:103630007BF9012010210623C74ACDE90010302173
:103640004F20FFF771F94F20C44908600020C4499A
:103650000860BE48BB490978405CC2490870012037
:10366000C1490870E9E0E4E3E8E028E086E001F021
:1036700023F80720B24908700220B24908700322DB
:10368000B3494FF48470FDF753F801201021032350
:10369000AF4ACDE9001026212F20FFF745F93F2042
:1036A000AE4908602620AE490860A948A5490978B6
:1036B000405CAC4908700120AB490870BDE0FFF7E1
:1036C000CFFD01209E4908700020A8490870A84934
:1036D00008700120A7A31022002100900846FEF7E1
:1036E0007AFE4FF488709849088000209549087048
:1036F0000522964994480088FDF71AF892480088F8
:10370000083091490880052291498F480088FDF7CB
:103710000FF88D48008808308B49088005228D49B4
:1037200089480088FDF704F8012010210523874A05
:10373000CDE900102F20FFF7F7F801201021052315
:10374000834ACDE9001020212F20FFF7EDF801205A
:10375000102105237F4ACDE9001030212F20FFF7EB
:10376000E3F810207E4908602F207C4908607748E4
:1037700074490978405C7B4908705EE0FFF770FD92
:1037800001206F49087000207849087001207849AD
:10379000087079A31022002100900846FEF71BFE56
:1037A0004FF4B87068490880002066490870052207
:1037B000664965480088FCF7BBFF6348008808300D
:1037C00061490880052262495F480088FCF7B0FF24
:1037D0005D48008808305C49088005225D495A48E8
:1037E0000088FCF7A5FF012010210523574ACDE9E9
:1037F00000102F20FFF798F8012010210523544ACC
:10380000CDE9001020212F20FFF78EF80120102194
:103810000523504ACDE9001030212F20FFF784F80E
:1038200010204F4908602F204C49086047484549FF
:103830000978405C4B49087000BFFAE240480078C4
:10384000062875D149480078012850D144480068BD
:1038500028B9444800783D493A4A1278885440488B
:103860000068102805D13F4801783948354A127858
:1038700081543B480068202805D13A4800783549F2
:10388000304A1278885436480068302805D13548C7
:10389000007831492B4A1278885450202A490880F0
:1038A00005222A4928480088FCF77AFF2648008824
:1038B0000830254908800622254923480088FCF75E
:1038C0006FFF2148008808301F49088006222149DF
:1038D0001D480088FCF764FF1B48008808301A491F
:1038E000088006221C4918480088FCF759FFFFF79A
:1038F00045FD4F2019490860102019490860012032
:103900001949087000200F49087008200C490870F8
:1039100000201649087006220C497020FCF708FFA9
:1039200006220B497820FCF703FF0120102125E037
:1039300046E00000880100208B0100208C0100205F
:1039400084010020860100208E01002090010020CB
:10395000970100209F010020A50100208001002088
:103960007C01002087010020850100208A010020C1
:1039700089010020D5FD0000B7B400000623FE4AEF
:10398000CDE9001020214F20FEF7CEFF01201021AD
:103990000623FA4ACDE9001030214F20FEF7C4FF7C
:1039A0002020F74908604F20F6490860F248F649A0
:1039B0000978405CF54908700020F549087035E247
:1039C000F4480078082830D1F148007801281DD14A
:1039D000EB480068302805D1EC480178E748EA4A0E
:1039E00012788154E6480068202805D1E74801781C
:1039F000E148E54A127881540622DF497020FCF73D
:103A0000CFFE0622DD497820FCF7CAFEFFF7D8F981
:103A10007120DC4908600420D94908600020DE4993
:103A20000870D9490870DB490870DA48007807281F
:103A30002CD1D7480078012819D1D4480178CF4833
:103A4000D14A12788154032201464FF48470FCF766
:103A5000A7FE4FF48472C9490320FCF7D9FECF4971
:103A6000086008460068CE490844CC490860FFF762
:103A7000A7F97120C34908600420C14908600020EB
:103A8000C5490870C0490870C2490870C14800782B
:103A900005282AD1BE480078012817D1BB480078F4
:103AA000B549B94A12788854BE48007820B94FF415
:103AB000E870BD49088003E04FF4EC70BA49088013
:103AC0000622AD49B8480088FCF76AFEFFF778F98E
:103AD0007120AC4908600420A94908600020AE4963
:103AE0000870A9490870AB490870AA4800780128F5
:103AF00000D100E00020A7490978022901D1012165
:103B000000E000210843A3490978032901D10121DC
:103B100000E0002108439F490978042901D10121CF
:103B200000E00021084300287ED099480078012851
:103B300079D193480068102805D1944800788E49BF
:103B4000914A127888548E480068202805D18F4801
:103B500000788A498C4A127888548948006830284D
:103B600005D18A4801789148874A1278815489485A
:103B7000007801280BD18B48007820B94FF4887069
:103B80008949088003E04FF4B8708749088081486C
:103B9000007802280BD18348007820B94FF4947044
:103BA0008149088003E04FF4C4707F490880794858
:103BB000007803280BD17B48007820B94FF4A0701F
:103BC0007949088003E04FF4D07077490880714844
:103BD000007804280BD17348007820B94FF4AC70FA
:103BE0007149088003E04FF4DC706F4908800522BA
:103BF00061496D480088FCF7D3FD6B4800880830A8
:103C00006949088005225D4967480088FCF7C8FDBE
:103C10006548008808306449088005226349624885
:103C20000088FCF7BDFD00E000E15A480078401C28
:103C300058490870002054490870564800780528F3
:103C400043D1FEF73FFA5748007820B94FF4E870A7
:103C50005549088003E04FF4EC70534908805148FF
:103C6000007848B90120AFF2F423102211460090E9
:103C70000520FEF7B0FB08E00120AFF2043310226C
:103C8000114600900520FEF7A6FB06223A49464859
:103C90000088FCF74DFD012010210623364ACDE9AE
:103CA000001026211820FEF73FFE26203449086028
:103CB000182034490860304833490978405C33495A
:103CC0000870002032490870B0E0324800780228BD
:103CD0000DD101F09DF93348007820B94FF494706C
:103CE0003149088003E04FF4C4702F490880294807
:103CF000007803280DD100F089FE2A48007820B909
:103D00004FF4A0702849088003E04FF4D070264992
:103D100008802048007804280DD1FEF703FA2148D6
:103D2000007820B94FF4AC701F49088003E04FF4CD
:103D3000DC701D4908801B48007848B90120AFF2AB
:103D4000CC331022002100900846FEF744FB08E027
:103D50000120AFF2DC331022002100900846FEF76C
:103D60003AFB0522044910480088FCF7E1FC0E48A4
:103D7000008808300C491BE09001002097010020CA
:103D80007C010020800100208601002087010020A6
:103D90008A01002084010020850100208400002089
:103DA00000049411890100208E0100209F01002051
:103DB00008800522FD49FE480088FCF7B9FCFC4854
:103DC00000880830FA4908800522FA49F848008836
:103DD000FCF7AEFC012010210523F74ACDE90010C5
:103DE0005020FEF7A1FD012010210523EF4ACDE967
:103DF000001020215020FEF797FD012010210523FF
:103E0000EC4ACDE9001030215020FEF78DFD102046
:103E1000EA4908605020EA490860E748E94909781A
:103E2000405CE94908700020E84908700020E74933
:103E30000870E748007802287ED1E648007840BB49
:103E400001200090DD480178082320227120FEF730
:103E5000F7FADA4800681030D8490860D948007885
:103E6000401CD84908700020DB490870D34800681E
:103E7000402805DD0420D14908600020D1490870A0
:103E800000200090CD480178082320227120FEF701
:103E9000D7FAD0480078012800D100E00020CD49B1
:103EA0000978022901D1012100E000210843C94914
:103EB0000978032901D1012100E000210843C54907
:103EC0000978042901D1012100E0002108430028DC
:103ED0007ED00120B94A00901178B94A1078102399
:103EE000B94A1278FEF7ACFAB4480068102805D138
:103EF000B5480078B049B34A12788854AF48006892
:103F0000202805D1B0480178A848AE4A12788154DB
:103F1000AA480068302805D1AB480078A549A94ACD
:103F200012788854A64800680830A5490860A5485A
:103F30000078401CA34900E0CFE208700120A649A8
:103F40000870A4480078012861D19C4800682028A6
:103F50000ED19B4800683F2818D199480068083066
:103F60009749086097480078401C964908700DE012
:103F700093480068372809D1914800680830904973
:103F8000086090480078401C8E4908708C48006892
:103F9000572811DB2F208A490860884800681030B4
:103FA00086490860002087490870844800684028D6
:103FB00002DB10208149086080480068102805D184
:103FC0007D4880490978405C7F4908707B4800E063
:103FD00082E00068202805D174487A490978405C5D
:103FE0007949087075480068302805D171487549CD
:103FF0000978405C744908700120704A009011787B
:104000006F4A10781023704A1278FEF719FA714837
:104010000078022801D1012000E000206D490978D4
:10402000032901D1012100E00021084369490978F1
:10403000042901D1012100E00021084318B36048A0
:104040000068582809D15E48006808305C4908605B
:104050005C480078401C5B49087059480068782823
:1040600011DB50205649086054480068103053490D
:10407000086000205349087050480068402802DB5F
:1040800010204E4908604D480068102805D14A4864
:104090004C490978405C4C49087048480068202821
:1040A00005D1424847490978405C47490870434870
:1040B0000068302805D13F4842490978405C4249B0
:1040C000087001203D4A009011783D4A1078102375
:1040D0003D4A1278FEF7B4F93E48007805284AD1E7
:1040E0000120364A00901178354A10781023364A5C
:1040F0001278FEF7A5F9344800782F49314A127832
:1041000088542F48006808302D4908602D480078F1
:10411000401C2C49087001202F490870284800686D
:10412000302809D12648006808302549086025480C
:104130000078401C234908701F4822490978405CD8
:10414000214908701E48006840280ADD18201C49D3
:10415000086000201B49087017480978405C1A491C
:1041600008700120164900900878102316490A7833
:104170002621FEF765F917480078062879D1012035
:104180000E4A009011780E4A107810230E4A1278C9
:10419000FEF756F90948006828B90B480178064827
:1041A000084A127881540548006817E097010020FA
:1041B0008E0100209F010020900100207C01002042
:1041C0008001002086010020870100208A01002054
:1041D0008B0100208401002085010020102805D1DA
:1041E000FD480078FD49FE4A12788854FD48006871
:1041F000202805D1F8480078FB49F94A12788854FC
:10420000F8480068302805D1F3480078F749F44AA7
:1042100012788854F64800680830F5490860F0487C
:104220000078401CEE4908700120F2490870ED4802
:104230000068F8B9EA48007801280AD1EC4800681B
:104240000830EB490860E6480078401CE4490870F3
:1042500062E0E348007805285EDB4F20E44908600F
:10426000E04800681030DF4908600020DC49087031
:1042700052E083E0DB480068102801D1012000E013
:104280000020D7490978032901D1012100E000214C
:10429000084048B1D64800680830D5490860D04881
:1042A0000078401CCE490870CE480068202801D113
:1042B000012000E00020CB490968302901D101210B
:1042C00000E000210843C6490978042901D10121F1
:1042D00000E00021084048B1C54800680830C449E2
:1042E0000860BF480078401CBD490870BC48007891
:1042F00006280ADB4F20BE490860BA480068103023
:10430000B84908600020B6490870B64800684028DF
:1043100002DB0020B3490860B248006828B9B648FB
:10432000AF490978405CAC490870AE480068102875
:1043300005D1AA48AA490978405CA7490870A9484C
:104340000068202805D1A848A5490978405CA24901
:104350000870A4480068302805D1A448A04909780D
:10436000405C9D49087001209E4A00901178A04A47
:1043700010781023984A1278FEF762F89F48007868
:10438000072837D10120974A00901178984A107871
:104390001023914A1278FEF753F88F4800788F491E
:1043A0008F4A127888549248006808309049086013
:1043B0008B480078401C8A49087001208D4908709C
:1043C00087480078032805D12F20894908600020FC
:1043D00083490870814882490978405C7E490870A9
:1043E000012083490090087810237B490A78262110
:1043F000FEF726F88148007808286ED10120794A16
:10440000009011787A4A10781023734A1278FEF7D8
:1044100017F874480068202805D16F48007876495D
:104420006F4A127888546F480068302805D16A486E
:1044300001786A486A4A127881546D4800680830E9
:104440006B49086066480078401C65490870012087
:104450006849087062480078042809D164480068F7
:104460000830634908605E480078401C5C49087069
:104470005B48007806280ADB4F205D4908605948F0
:1044800000681030574908600020554908705548A9
:104490000068402802DB202052490860514800682B
:1044A000202805D154484E490978405C4A49087093
:1044B0004C480068302805D1484849490978405C93
:1044C000454908700120474A00901178484A107801
:1044D0001023414A1278FDF7B3FF494800780128BC
:1044E0002BD14648007848BB012000903D48017818
:1044F000082320227120FDF7A3FF3A4800681030FE
:104500003849086036480078401C3549087000205A
:104510003849087033480068402805DD04203149D7
:10452000086000202E490870002000902D48017876
:10453000082320227120FDF783FF6EE0012031491E
:1045400008702E480078082801D1012000E00020E2
:104550002A490978062901D1012100E000210843F8
:1045600020490968102901D1012100E000211D4ADC
:104570001268202A01D1012200E000221143194AC9
:104580001268302A01D1012200E0002211430840C4
:104590001349097809B9012100E00021084058B108
:1045A0000D4800782B2803D12D200B4908700EE010
:1045B0002B20094908700AE007480078401C06498A
:1045C0000870084600783A2801DB30200870012086
:1045D00008490870034A17E087010020970100206E
:1045E000860100207C0100209F010020A501002001
:1045F000800100208501002090010020840100201E
:104600008B0100208A01002000901178164A107852
:104610001023164A1278FDF713FF15480078012879
:1046200003D100201249087002E0012010490870EF
:104630001048007850B90E48007800900E48017874
:10464000082320227120FDF7FBFE0BE008480078CC
:10465000094A00901178044A10781023034A12780E
:10466000FDF7EEFE1CBD0000800100208701002048
:1046700085010020840100207C01002010B500206D
:1046800008490870FEF79CFB712007490860042068
:104690000649086001200649087000200549087095
:1046A00010BD000084010020800100207C0100205A
:1046B000850100208601002008B50020FEF76EFC71
:1046C000012004A310220F2100901520FDF783FE86
:1046D00008BD0000CDA8D1B6B5D8D6B7A3BA0000A2
:1046E0001CB50020FEF75AFC01201AA3102200215D
:1046F00000900846FDF76FFE012019A31022114615
:1047000000900020FDF767FE012018A31022202151
:1047100000901046FDF75FFE012017A31022302104
:1047200000901046FDF757FE01201021022315A22C
:10473000CDE9001020210020FEF7F6F8012010211D
:10474000022310A2CDE9001030210020FEF7ECF882
:104750001CBD0000CEC2B6C8C1E3B5E3A3BA0000D9
:10476000CEC2B6C8CFB5CAFDA3BA0000B6C8D2D46F
:10477000C9CFA3BA00000000B6C8D2D4CFC2A3BA32
:10478000000000003235000000B587B0012105208F
:10479000FEF742FEA020ADF8040003208DF80600CD
:1047A00018208DF8070001A91B48FDF7FFFC4020E9
:1047B000ADF8040048208DF8070003208DF80600AE
:1047C00001A91548FDF7F2FC01210803FEF724FEBC
:1047D0000020ADF808004FF48270ADF80A00002008
:1047E000ADF80C00ADF80E00ADF810004FF40070FD
:1047F000ADF812000020ADF81400ADF81600072047
:10480000ADF8180002A9054800F016F80121034888
:1048100000F006F807B000BD00080140003001407C
:1048200021B1028842F04002028004E002884FF683
:10483000BF731A400280704710B50022028802F44C
:1048400041520B884C8823438C882343CC882343D4
:104850000C8923434C8923438C892343CC892343EC
:104860001A430280838B4FF2FF74234083830B8AA9
:10487000038210BD024600BF108900F0020000282C
:10488000FAD0918100BF108900F001000028FAD011
:104890009089C0B27047704710B500F001F810BDA4
:1048A0000CB50020019000903348006840F480303F
:1048B0003149086000BF3048006800F400300090C3
:1048C0000198401C0190009818B90198B0F5A06FAC
:1048D000F1D12948006800F4003010B101200090A7
:1048E00001E0002000900098012843D1234800688F
:1048F00040F01000214908600846006820F00300DD
:1049000008600846006840F0020008601A484068E5
:10491000194948600846406848600846406840F4C5
:10492000806048600846406820F47C104860084673
:10493000406840F4E81048600846006840F0807025
:10494000086000BF0C48006800F000700028F9D033
:104950000948406820F0030007494860084640685D
:1049600040F00200486000BF0348406800F00C00BF
:104970000828F9D10CBD00000010024000200240C0
:10498000042808D14FF0E021096941F004014FF0FB
:10499000E022116107E04FF0E021096921F00401F4
:1049A0004FF0E022116170477047000010B51348C6
:1049B000006840F00100114908600846406810494D
:1049C00008400E494860084600680E4908400B49F7
:1049D00008600846006820F48020086008464068A7
:1049E00020F4FE0048604FF41F008860FFF754FF7A
:1049F0004FF000600449086010BD00000010024044
:104A00000000FFF8FFFFF6FE08ED00E01CB50020F7
:104A1000FEF7C4FA012012A31022002100901046D4
:104A2000FDF7D9FC01201021082311A2CDE90010C7
:104A30000420FDF779FF0120102108230FA2CDE902
:104A4000001020210420FDF76FFF01201021082312
:104A50000DA2CDE9001030210420FDF765FF1CBD3B
:104A6000CFF2D0DED5FDB2CECAFDA3BA0000000061
:104A70003430257E3530253A000000003530257E63
:104A80003630253A000000003630257E3730253A92
:104A90000000000010B50121224800F096F800281F
:104AA0003FD02148006808B9012000E000201E49DD
:104AB000086001211B4800F079F801201B490870AB
:104AC0001B480078401C1A490870084600780528E1
:104AD00005DB0120174908700020154908701648A9
:104AE0000078401C1449087008460078962805DBB9
:104AF00001201249087000200F4908701048007802
:104B000078B110480078032806DB01200E490870B0
:104B100000200C49087004E00A480078401C09494C
:104B2000087010BD00080040B40122429C00002023
:104B30009F0000209B0000209A0000209E00002083
:104B400097000020990000209D0000207FB50546B9
:104B50000C4601210420FEF74FFCADF80850ADF8DB
:104B600004400020ADF80A00ADF8060001A90E4887
:104B700000F046F8012211460B4800F037F81E20DD
:104B80008DF8000000208DF8010003208DF8020050
:104B900001208DF803006846FEF7ACF901210248B8
:104BA00000F007F87FBD000000080040CA43028201
:104BB000704721B1028842F00102028004E00288BD
:104BC0004FF6FE731A400280704730B5024600204F
:104BD00000230024158A05EA0103958905EA0104EA
:104BE00013B10CB1012000E0002030BD1AB183895F
:104BF0000B43838102E083898B43838170470000EC
:104C0000002202881D4B98420ED01D4B98420BD0BB
:104C1000B0F1804F08D01B4B984205D01A4B9842F8
:104C200002D01A4B984204D14FF68F731A404B882A
:104C30001A43174B984207D0164B984204D04FF6B0
:104C4000FF431A40CB881A4302808B8883850B88E8
:104C500003850A4B98420BD0094B984208D00E4B63
:104C6000984205D00D4B984202D00D4B984201D18D
:104C70000B7A03860123838270470000002C0140D9
:104C8000003401400004004000080040000C0040D7
:104C9000001000400014004000400140004401406A
:104CA0000048014010B50446012C18D1102000F036
:104CB000D7F8202000F0D4F8202000F0D1F82F20E1
:104CC00000F0CEF8502000F0CBF8102000F0C8F82B
:104CD000102000F0C5F8722000F0C2F819E0022C94
:104CE00017D1102000F0BCF8202000F0B9F82020E7
:104CF00000F0B6F82F2000F0B3F8502000F0B0F824
:104D0000102000F0ADF8102000F0AAF84A2000F0C2
:104D1000A7F810BD002001E0411C88B20528FBDB8C
:104D20007047000010B51448007828B14FF4806136
:104D30001248FDF7CFFA04E04FF400610F48FDF789
:104D4000C9FA012000F0B0FD00F01AF80446240270
:104D500000F016F80444240200F012F804444FF462
:104D600080610648FDF7B8FA4FF400610348FDF78B
:104D7000B3FA204610BD0000BD010020000C014028
:104D800070B5002400251AE04FF400510E48FDF7DD
:104D9000A1FAFFF7BFFF6006040E4FF480410A48F6
:104DA000FDF78FFA012801D1601CC4B24FF4005105
:104DB0000548FDF791FAFFF7ADFF681CC5B2082D55
:104DC000E2DB204670BD0000000C014070B50446D7
:104DD00000251FE004F0800028B14FF400410F4887
:104DE000FDF77AFA04E04FF400410C48FDF772FA3F
:104DF0004FF400510948FDF76DFA6006040EFFF705
:104E000089FF4FF400510548FDF766FAFFF782FF6E
:104E1000681CC5B2082DDDDB70BD0000000C014030
:104E200010B5002411E00B48007830B14FF48071C8
:104E30000948FDF746FA38B90AE04FF40071064810
:104E4000FDF73FFA00B903E0641C04488442EAD34A
:104E500000BF10BDBD010020000C0140404B4C00C4
:104E600010B504460D48007828B14FF480610C4815
:104E7000FDF730FA04E04FF400610948FDF72AFA23
:104E80002046FFF7A3FF4FF400610548FDF724FA21
:104E90004FF480610248FDF71FFA10BDBD010020EC
:104EA000000C014008B501210820FEF7B5FA4FF4C7
:104EB0003C40ADF8000010208DF8030003208DF871
:104EC000020069461A48FDF771F94FF48640ADF8C3
:104ED000000004208DF8030069461548FDF766F9C7
:104EE0004FF470511248FDF7F7F9052000F0B6FCB9
:104EF0004FF480510E48FDF7EDF9642000F0AEFC50
:104F00004FF480510A48FDF7E7F9642000F0A6FC51
:104F1000012008490870FFF7C5FE00200549087008
:104F20000220FFF7BFFE4FF4167000F097FC08BD9B
:104F3000000C0140BD0100202DE9F14F8CB01E494D
:104F40001E48CDE9061000211D48CDE908100020BB
:104F50001C49CDE902010C9801F0CFF80646DDE9C5
:104F6000062301F0F5F804460D4622462B46DDE9FE
:104F7000080101F0D1FACDE9040120462946DDE916
:104F8000022301F0E5F88046DDE9042300F02EFF5E
:104F9000064600220C4B01F0DBF8824600220B4B48
:104FA00001F0BAFACDE9000101F078F80A900A9808
:104FB0000DB0BDE8F08F0000DDD1E9FFFFFF833EBB
:104FC0000000044000408F4000005940000049406C
:104FD00010B501460022002300240B48814208DB63
:104FE000091A01EB810041004FF4C27091FBF0F10E
:104FF00007E00548411A01EB81004100034891FB9D
:10500000F0F108B210BD0000A08601007CFEFFFF99
:105010001CB50020FDF7C2FF012012A310220021C1
:1050200000901046FDF7D7F901201021082311A2A6
:10503000CDE900100420FDF777FC012010210823A2
:105040000FA2CDE9001020210420FDF76DFC012006
:10505000102108230DA2CDE9001030210420FDF716
:1050600063FC1CBDCFF2D0DED5FDB2CECAFDA3BA23
:10507000000000003130257E3230253A000000006B
:105080003230257E3330253A000000003330257E53
:105090003430253A000000003A49098801F0200127
:1050A000002961D03749091D0988C8B2022806D1F4
:1050B0003549097819B90121334A117060E0032894
:1050C00007D131490978012903D102212E4A1170F3
:1050D00056E0042807D12C490978022903D103217D
:1050E000294A11704CE02849097802290EDD264929
:1050F000097806290ADA24490978C91E234A505436
:1051000021490978491C204A117039E01E49097863
:10511000062905D11C490978491C1B4A11702FE04A
:1051200019490978072905D117490978491C164AF0
:10513000117025E014490978082921D1134909780B
:1051400042F210725143114A527802EBC20303EB50
:10515000021201EB82010D4A927811440C4A11802F
:105160000021094A11700BE00649098801F010017D
:1051700031B10449091D0988C8B20121054A91715C
:105180007047000000380140D8010020D201002003
:10519000E2010020E401002021B1828942F40052A2
:1051A000828104E082894DF6FF731A408281704744
:1051B000F0B50346002400260025002040F66A17BB
:1051C000B94200D100BF1846C1F3421401F01F06D6
:1051D000012707FA06F5012C01D10C3004E0022C5E
:1051E00001D1103000E014301AB107682F43076076
:1051F00002E00768AF430760F0BD00002DE9F0470B
:1052000086B005460E460024A24600BFA1460027F0
:10521000B08900B100BF2F462C8A4CF6FF700440C5
:10522000F08804432C82AC894EF6F3100440B08819
:1052300031890843718908430443AC81AC8A4FF635
:10524000FF400440B0890443AC8201A8FEF7F4F8A3
:105250001F48874202D1DDF810A001E0DDF80CA064
:10526000A88900F4004040B10AEBCA0000EB0A1024
:1052700031684900B0FBF1F807E00AEBCA0000EB27
:105280000A1031688900B0FBF1F86420B8FBF0F037
:1052900004012009642101FB1089A88900F4004061
:1052A00040B1322000EBC900B0FBF1F000F0070084
:1052B000044308E0322000EB09106421B0FBF1F058
:1052C00000F00F0004432C8106B0BDE8F087000019
:1052D0000038014010B586B0002401AA00210B4817
:1052E000FCF78AFA0A490298096888420CD100BF83
:1052F00005E00DF10F00005D06490855641C082CFF
:10530000F7DB01200449087006B010BD00640040BE
:1053100084000020610000206000002000BFFEE744
:105320002DE9F04782462B4800882B490988401A0E
:105330002A490968084400EB80108244BAF1000F42
:105340001CDB504600F0D9FE04460D4600221346F1
:105350002046294601F0E0F880460022204B00F06C
:1053600045FD064600221F4B00F0F2FE04460D46A6
:105370002046294600F092FE824627E0BAF1000F4F
:1053800022DA6FEA0A00401C00F0B7FE04460D4620
:10539000002213462046294601F0BEF806460022A8
:1053A0000F4B00F023FD804600220E4B00F0D0FE94
:1053B00004460D462046294600F070FE82466FEAFC
:1053C0000A0000F1010A01E04FF0000A5046BDE872
:1053D000F08700005200002050000020A8000020AC
:1053E000A1E853410088F34001461C480068084486
:1053F0001A4A10600AE019480068194A801A174AC8
:10540000106018480068401C164A10601348006875
:10541000134A9042EFDC0AE010480068104A10443A
:105420000E4A10600F480068401E0E4A10600B487C
:1054300000680B4A52429042EEDB0A4800680A4A72
:10544000904204DC074800685242904202DA002091
:10545000044A10600348006870470000A000002064
:1054600040771B00440000203F420F002DE9FF471A
:1054700082465048008850490988401A4F490968B7
:10548000084400EB801082444D48008800EB800007
:10549000BAEB400F3BDB504600F02FFE04460D46B2
:1054A000002213462046294601F036F80022454BDB
:1054B000CDE9000100F09AFC064600F079FB804639
:1054C00089464149096801EB8101480000F015FE59
:1054D00042464B46CDE9020100F03AFE04460D4635
:1054E0003A493B4A127831F8120000F01DFE80461E
:1054F00022462B4600F02CFE06460022354B00F0DB
:1055000075FCCDE9020100F0C9FD82464BE032484E
:10551000008800EB80006FEA4000801C504540DDB1
:105520006FEA0A00401C00F0E8FD04460D46002228
:1055300013462046294600F0EFFF80460022214B0B
:1055400000F054FC064600F033FBCDE9020123498C
:10555000096801EB8101480000F0CFFDCDE90001B1
:10556000DDE9022300F0F4FD04460D461C49184A0B
:10557000127831F8120000F0D7FD064622462B467D
:1055800000F0E6FD80460022124B00F02FFCCDE932
:10559000020100F083FD82466FEA0A0000F1010A71
:1055A00001E04FF0000A0F48C0F800A0504604B0D8
:1055B000BDE8F0875200002050000020A800002025
:1055C00054000020A1E8534158000020EC010020C5
:1055D000A400002000408F40560000205C00002006
:1055E000000200204800002038B504462046FFF79E
:1055F000A3FC04462046FFF7EBFC044604F0004001
:1056000018B1E043441C012500E0002512482B4658
:105610000122042100902046FDF749FC6FF06E0046
:10562000604347F6B4010844642190FBF1F404F0B0
:10563000004018B1E043441C012500E00025074864
:105640002B460022032100902046FDF730FC044841
:105650000460204638BD00000B000020130000202D
:10566000A800002038B5044604F0004018B1E0431B
:10567000441C012500E000250A2094FBF0F40448B6
:10568000EBB20022072100902046FDF710FC38BD48
:105690002B000020F8B504465348241AB4F5000F37
:1056A00002DB241AE443641C04EB840040004F49ED
:1056B00090FBF1F04E49087008460078092801DD9A
:1056C000092008704B484C49097840F821404B4864
:1056D000007801281FD147480068464949680844B6
:1056E0004449896808444349C968084441490969EB
:1056F00008444049496908443E49896908443D498C
:10570000C96908443B49096A08443A49496A084456
:105710000A2190FBF1F438480078401C36490870A3
:1057200008460078092804DD00200870012033496C
:10573000087025462046FFF799FE044604F0004015
:1057400018B1E043441C012600E000262C483346F3
:105750000322072100902046FDF7A9FB2C46204696
:10576000FFF784FE04462046FFF73EFE044604F0A1
:10577000004018B1E043441C012600E00026214807
:1057800033460122072100902046FDF790FB2C466E
:105790002046FFF7C5FD044604F0004018B1E04381
:1057A000441C012600E00026174833460322072147
:1057B00000902046FDF77BFB1448048844F25060BB
:1057C000844206DD1148008848F604510C1A01266F
:1057D00000E000260E4833460222072100902046B2
:1057E000FDF765FBF8BD0000FFFF7F0084A24F00BE
:1057F000A4000020140200208D0000208C00002056
:105800001B0000202300002033000020E2010020C4
:105810003B00002000BF704710B56FF00400FFF799
:10582000AFF80A4800680A49B0FBF1F0094908706E
:105830000846007800EB4001C1EBC0104FF6FF7145
:1058400001EAC0000449088010BD00006C0000207F
:1058500000127A0080000020820000200146114AD8
:1058600012884A434FF0E0235A6100229A611A4697
:10587000126942F001021A6100BF4FF0E022106984
:1058800000F001021AB100F48032002AF5D04FF086
:10589000E022126922F001024FF0E0231A61002297
:1058A0009A617047820000200146114A12784A43EB
:1058B0004FF0E0235A6100229A611A46126942F0C1
:1058C00001021A6100BF4FF0E022106900F00102EE
:1058D0001AB100F48032002AF5D04FF0E0221269AC
:1058E00022F001024FF0E0231A6100229A61704712
:1058F000800000201FB50025002798A103C9CDE92D
:105900000201FFF789FF4FF4A060FDF72BFB4FF476
:10591000165000F073F9FDF7DBF9FDF78DF9FAF792
:105920002DFDFFF7BFFAFDF78DFBFCF7FFFA012015
:105930008C490870002641F61F4140F2CF70FFF7F6
:1059400005F9002008231A4607210090FBF7DAFE2C
:10595000012402E18448007818B3844800784F2875
:1059600014D182484078552801D1012000E0002060
:105970007E498978542901D1012100E000210840A5
:1059800078B101240025FCF7D1FA0DE077480078C2
:10599000242807D175484078592805D10224FBF7FF
:1059A00053F801E0FBF7A0FF022CD2DA7048007830
:1059B0000128CED1FDF756F96E49087008460078E7
:1059C000042821D16C48007840B901206A49087048
:1059D00000206A4908706A49087083E067480078C7
:1059E00000287FD000206549087063490870012CA9
:1059F00003D10024FEF742FE74E0FAF72FFF0124E2
:105A00000025FCF793FA6DE05B48007810B10020A8
:105A100059490870012C63D15648007808B9012013
:105A200000E00020032F01D1012100E00021084007
:105A300040B1012E03DB0026FCF778FA02E00126D4
:105A4000FCF7D8FA4F480078042841D100204D498E
:105A50000870F6B90120102108234B4ACDE9001047
:105A600003212220FCF760FF012010210823474A70
:105A7000CDE9001018212220FCF756FF012010214B
:105A80000823434ACDE900102D212220FCF74CFFCA
:105A900023E00120102105233E4ACDE90010152105
:105AA0000420FCF741FF0120102104233A4ACDE9EC
:105AB000001015214620FCF737FF01201021082394
:105AC000364ACDE900102D212220FCF72DFF04E0FD
:105AD0002C480078401C2B4908702648077801E0C4
